:100000000C9434000C9449000C9449000C94490061
:100010000C9449000C9449000C9449000C9449003C
:100020000C9449000C9449000C9449000C9449002C
:100030000C9449000C9449000C9449000C9449001C
:100040000C9449000C9449000C9449000C9449000C
:100050000C9449000C9449000C9449000C944900FC
:100060000C9449000C94490011241FBECFEFD8E036
:10007000DEBFCDBF11E0A0E0B1E0E2E5F1E002C0FB
:1000800005900D92AA31B107D9F70E9474000C9423
:10009000A7000C94000025B115B820E030E061E025
:1000A00070E0AB01022E02C0440F551F0A94E2F724
:1000B00048235923452B11F02B9A02C045B115B89E
:1000C0002A9A45E34A95F1F7000045B115B82F5F2C
:1000D0003F4F2031310529F7299A85E08A95F1F7BC
:1000E000000085B115B80895CF93DF9300D000D0FC
:1000F000CDB7DEB78EE084B982E589839FE49A8329
:100100008B8389E58C836894CC24C7F8D12CCE01ED
:1001100001967C0100E010E0D701ED917D01F0E057
:10012000E154FF4F2081C601002E02C095958795AE
:100130000A94E2F7922B0E944B00B5E0BA95F1F7D2
:1001400000000F5F1F4F0430110509F3E5CFF8944D
:02015000FFCFDF
:10015200EE3E9C7A9E8EF62E60706E1C022A3ACE7D
:0A016200E60AB41E7C3802026602B1
:00000001FF
